:020000021000EC
:10000000008000205D1E0100451E0100451E01000C
:1000100000000000000000000000000000000000E0
:10002000000000000000000000000000451E01006C
:100030000000000000000000451E0100B11E01008C
:10004000451E0100451E0100451E0100451E010020
:10005000451E0100451E01000D070100491E01005B
:10006000451E010031140100451E01000914010064
:10007000451E0100451E010041140100451E0100FE
:10008000451E0100451E0100451E0100451E0100E0
:1000900000000000451E0100451E0100451E010034
:1000A000451E0100451E0100451E0100451E0100C0
:1000B0000000000010B5064C2378002B07D1054B3B
:1000C000002B02D0044800E000BF0123237010BDC4
:1000D0000002002000000000044D0100044B10B598
:1000E000002B03D00349044800E000BF10BDC04608
:1000F0000000000004020020044D010010B50221A0
:10010000042002F035FA042002F0AAFA134C002869
:1001100001D1022323700E2002F0D4F801000E203A
:1001200002F03CF902212C2002F022FA02212D20BB
:1001300002F01EFA2478022C0FD121002A2002F0AE
:1001400017FA2100132002F013FA2100192002F0FF
:100150000FFA21000F2002F00BFA10BD78000020EA
:1001600070B505000024C30705D52D2002F078FAEC
:1001700044424441E4B20226354205D02C2002F02C
:100180006FFA002800D13443200070BD70B52A4BAF
:1001900005001C78012C25D1200002F093F825429F
:1001A00003D00623FF33984207DD022300241D42BB
:1001B00003D0224A904200DD1C002A2002F082F87F
:1001C00004231D4205D01D4A904202DD1C43E4B2C7
:1001D00006E008231D4203D00622FF329042F5DDDF
:1001E000200070BD022CFBD10024C30705D52A20B6
:1001F00002F036FA44424441E4B20226354206D0C7
:10020000132002F02DFA002801D13443E4B2042671
:10021000354206D0192002F023FA002801D13443D8
:10022000E4B208263542DBD00F2002F019FA00288C
:10023000D6D13443CBE7C04678000020FA02000054
:1002400084B010B5059302900391049202AB1B7E1B
:10025000002B0ED0094A93681168C41AA14208DD28
:100260001B18994205DA064B1B78002B01D1283365
:10027000136010BC08BC04B01847C046BC00002086
:100280004802002084B0F0B51600314D85B00393CC
:100290000C920D932A68AB686F6802939B180193C8
:1002A000EB680A909C46DC1983190093039B0B9121
:1002B000CB18A14213DAB94211DD019EB04230DA07
:1002C000009EB24231DA6346C91A0023214A6960AE
:1002D0001370EB6105B0F0BC08BC04B01847019D79
:1002E0009F4218DA9C4216DDA8421ADA009DAA4203
:1002F0001FDA0026164D6B60EE61904224DC019AF5
:1003000000988242E6DDA142E4DA9F42E2DA104B35
:10031000009A1A60DEE7A84203DA904201DDA142AA
:100320000BDB00988242EADBD4E79F42F5DA9C427D
:10033000F3DD9042CEDDA142CCDA9F42F1DA029B9E
:10034000C01A034B1860C5E7A142F8DBD7E7C046E7
:10035000BC000020480200207FB5284C2368E269D9
:10036000A169A36263685218E3629B186360244B1F
:10037000E2611A006946103261CA61C118685968A1
:100380009A68DB68FFF77EFF1E4B69461A00103241
:1003900061CA61C19A6818685968DB68FFF750FF45
:1003A000194B62681B689A4204DB63600023174A9A
:1003B000E36113700120FFF7D3FE002807D0134B31
:1003C0001A78002A03D1226AE26101221A700420FD
:1003D000FFF7DCFE002805D02368002B02DD626AEF
:1003E0009B1A23600820FFF7D1FE002805D0236860
:1003F000572B02DC626AD31823607FBDBC0000204B
:10040000000000205C000020F000002048020020D6
:100410007FB501F05BFD01F059FD504C2368C01A17
:100420004F4B1B68984203D2012001F085FDF2E793
:1004300001F04CFD0323012600222060494C029369
:1004400034330196009311002000293300F0A4FA00
:10045000002538220195009229002000602300F039
:100460001BFB6D2302932D3B019600932900200076
:100470002033392200F090FA3B4D20002B68D9B28E
:10048000AB68CA18013AD2B200F0A8F96B68200034
:10049000D9B2EB68CA18013AD2B200F0BDF9200017
:1004A00000F07CF9AB68EA6869695A43200000F003
:1004B000B1F8200000F084F92C4D20002B68D9B24F
:1004C000AB68CA18013AD2B200F088F96B68200014
:1004D000D9B2EB68CA18013AD2B200F09DF92000F7
:1004E00000F05CF9AB68EA6869695A43200000F0E3
:1004F00091F8200000F064F91D4D20002B68D9B25E
:10050000AB68CA18013AD2B200F068F96B682000F3
:10051000D9B2EB68CA18013AD2B200F07DF92000D6
:1005200000F03CF9AB68EA6869695A43200000F0C2
:1005300071F8200000F044F920000E4900F0DBF8CB
:100540000C222000110000F0D3F80B4A13689B190D
:100550001360FFF701FF01F0B9FC7FBD44020020EA
:10056000EC0000201C020020BC0000205C000020E9
:100570000000002080450100400200200322124BB1
:1005800010B5591CCA7719000831CA7719002831EB
:100590001A705A709A705A719A71DA711A725A7284
:1005A0009A725A739A73DA731A745A749A75DA755E
:1005B0001A765A769A77DA770A702F33022103482F
:1005C0001A7000F063F810BDF40000201C02002037
:1005D000962110B589010B4801F00EFAFFF78EFD48
:1005E000094C200000F066FC2000002100F0D5FA44
:1005F00020000F2100F07CFA0021200000F0D2FA48
:1006000010BDC046C00400201C020020002070471E
:1006100070470000F0B50B78847CDB05002C1AD005
:10062000184DAC6ADB0D640A64022343AB62164EBC
:10063000144D4C1C837C671A974217DA2778002BDD
:100640000BD02B7EDB07FCD5AB6A5B0A5B023B431E
:10065000AB620134EEE70C4DE3E7337EDB07FCD5FC
:10066000B36A5B0A5B023B43B362F2E7002B04D040
:10067000044A137EDB07FCD5F0BD034A137EDB077B
:10068000FCD5F9E7000C0042001800420023144A90
:10069000436008320260134A837443728372C372E8
:1006A0000373437342618361C3618373C3730374D0
:1006B0004374C174994206D10B4B036201238374C6
:1006C000002303727047012904D1074B8174036230
:1006D0000172F7E70229EFD1044B0362F2E7C0464B
:1006E00028470100FFFF00004C02002068020020A4
:1006F0004172827270470B78C3724B7803738B78A8
:1007000043734B6883618B68C361704772B60F2275
:10071000094B1B8C1340094A1370094B1A78002AA5
:1007200002D00121074A116002221A70013A1A70A0
:1007300003321A7062B67047004800413F480041DA
:100740004E4800413401002070B50D001400017ABC
:10075000084E20313000C9B200F048FD29003000B9
:1007600000F05CFD2100300000F058FD300000F08A
:10077000B2FD70BD8C02002010B5847C002C04D02A
:10078000FC220021FFF7E0FF10BD2100162001F040
:100790003BFF2100262001F037FFF5E710B5847CF0
:1007A000002C04D0FD220021FFF7CEFF10BD012157
:1007B000162001F029FF2100262001F025FFF5E792
:1007C00010B5837C002B04D006220021FFF7BCFF6C
:1007D00010BD0121262001F017FFF9E770B50400D4
:1007E0000E001500FFF7C8FF1521206A00F06AFC13
:1007F000311C5F2E00D95F21C9B2206A00F062FC73
:10080000291C5F2D00D95F21C9B2206A00F05AFC73
:100810002000FFF7D5FF70BD70B504000E00150075
:10082000FFF7AAFF7521206A00F04CFC311C3F2E17
:1008300000D93F21C9B2206A00F044FC291C3F2D99
:1008400000D93F21C9B2206A00F03CFC2000FFF72C
:10085000B7FF70BDF7B51C0005000F00160008AB10
:100860001B78013C013BD318DBB201930C19FFF755
:1008700083FF2521286A00F025FC3900286A00F052
:1008800021FCE4B23100286A00F01CFC211C5F2C22
:1008900000D95F21C9B2286A00F014FC6B461979AF
:1008A000019B3F2B00D93F21C9B2286A00F00AFC06
:1008B0002800FFF785FFC8235B01013BFDD1F7BD91
:1008C000F0B587B00E000DA90978150005910EA9A5
:1008D00009780CAA03910FA909780400049110A9C2
:1008E00012780F785F2E55D83F2D53D8013BF3185F
:1008F000DBB20193531EEB18DBB20293FFF73CFF10
:100900002621206A00F0DEFB0599206A4B1E9941E2
:10091000C9B200F0D7FB2221206A00F0D3FB3100DE
:10092000206A00F0CFFB2900206A00F0CBFB6B4669
:100930001979019B5F2B00D95F21C9B2206A00F0B1
:10094000C1FB6B46197A029B3F2B00D93F21C9B2EC
:10095000206A00F0B7FB3900206A00F0B3FB04996D
:10096000206A00F0AFFB0399206A00F0ABFB39006E
:10097000206A00F0A7FB0499206A00F0A3FB03990A
:10098000206A00F09FFB2000FFF71AFFC8235B01DD
:10099000013BFDD107B0F0BDF0B58BB010AC2478B1
:1009A000867B089411AC24780793099412AC2488B0
:1009B0006509002E12D03F273E262F40E50A64002D
:1009C00026406D00099B04950193089B03970093B3
:1009D0000296079BFFF774FF0BB0F0BD0326A7102C
:1009E00026400724B3002740254034011C432643FA
:1009F000FC002743EC002543E4E7F0B504000F00BA
:100A000085B01D000AAB1B78160000930BAB1B785A
:100A100001930CAB1B7802930DAB1B780393FFF78C
:100A2000ABFE2121206A00F04DFB391C5F2F00D95D
:100A30005F21C9B2206A00F045FB311C3F2E00D96E
:100A40003F21C9B2206A00F03DFB291C5F2D00D96F
:100A50005F21C9B2206A00F035FB6B461978009B14
:100A60003F2B00D93F21C9B2206A00F02BFB03992C
:100A7000206A00F027FB0299206A00F023FB01990D
:100A8000206A00F01FFB2000FFF79AFEC823DB005E
:100A9000013BFDD105B0F0BDF0B587B00CAC2478BA
:100AA000867B05940DAC248804936509002E10D034
:100AB0003F273E262F40E50A640026406D00059B37
:100AC0000395009302970196049BFFF796FF07B0EA
:100AD000F0BD0326A71026400724B3002740254079
:100AE00034011C432643FC002743EC002543E6E782
:100AF00070B504000D00FFF73FFE8721206A00F06B
:100B0000E1FA291C0F2D00D90F21C9B2206A00F08B
:100B1000D9FA2000FFF754FE70BD000010B5837CA9
:100B20000400002B03D101211B2001F06DFD2000EA
:100B3000FFF722FE054B013BFDD1AF21206A00F0FB
:100B4000C1FA2000FFF73CFE10BDC0460071020054
:100B500070B5C37B04002425002B00D01235237C04
:100B6000002B01D002235D40A37B002B01D040234A
:100B70001D43637C002B01D004235D402000FFF760
:100B8000FBFDA021206A00F09DFA2900206A00F0F8
:100B900099FA2000FFF714FE70BD10B58173FFF7BE
:100BA000D7FF10BD10B5C173FFF7D2FF10BD000015
:100BB000F0B5027B87B004000B00002A00D15AE197
:100BC0008A4200D957E1417B994200D253E1417AF0
:100BD0005F2900D94FE1807A3F2800D94BE19B1A69
:100BE000A2699B00D2181578EE08F3009D4200DD43
:100BF0000136E37A52887343013A9B184A1CAA18BB
:100C00009BB2D2B220000393FFF7E8FDA17AE27A0B
:100C100020008A18D2B2FFF7FFFD2000FFF7BEFDCB
:100C200000239C46954BE27A624500D81CE1A27AEB
:100C300062443F2A00DD17E1A27B002A1ED0E28A2F
:100C4000A17C120AD20500290DD0996AD20D490A59
:100C500049020A439A62A27C002A0CD188490A7E82
:100C6000D207FCD50AE08648D20D816A490A4902BA
:100C70000A438262EFE71A7ED207FCD5E28AA17CA2
:100C8000D20500295DD0996AD20D490A49020A436A
:100C90009A620096009A002A00D192E06146039A77
:100CA0000098521AE17A01384143511AE269525CC4
:100CB00000210492009AB21AD200D2B20592704A70
:100CC000677A05980297A77C40180197854234DD22
:100CD000029FC0195E2830DC0198002839D0187EA8
:100CE000C007FCD580270F41A07B02903800049FED
:100CF00007423DD00298002811D0A08A019F000A27
:100D0000C005002F29D09F6AC00D7F0A7F0238439B
:100D10009862A07C002827D0187EC007FCD5A08A46
:100D2000A77CC005002F45D09F6AC00D7F0A7F02B7
:100D30003843986201310829C2D1009A013A0092E1
:100D4000A8E74F48D20D816A490A49020A438262E4
:100D50009FE7107EC007FCD5C4E7976AC00D7F0AE5
:100D60007F0238439062D4E7107EC007FCD5D6E7F7
:100D70000298002811D0E08A019F000AC005002FC8
:100D80000DD09F6AC00D7F0A7F0238439862A07C15
:100D900000280BD0187EC007FCD5E08AC0E7976A10
:100DA000C00D7F0A7F0238439062F0E7107EC007D3
:100DB000FCD5F2E7976AC00D7F0A7F023843906244
:100DC000B8E7A17C002904D12D48027ED207FCD5CA
:100DD00002E01A7ED207FCD5627A52195E2A3EDC06
:100DE000A27B002A1DD0E28A120AD20500290DD06A
:100DF000996AD20D490A49020A439A62A27C002AE2
:100E00000CD11F490A7ED207FCD50AE01C48D20D3E
:100E1000816A490A49020A438262EFE71A7ED207D1
:100E2000FCD5E28AA17CD20500290DD0996AD20DA9
:100E3000490A49020A439A62A27C002A0CD110494D
:100E40000A7ED207FCD50AE00D48D20D816A490A14
:100E500049020A438262EFE71A7ED207FCD5624656
:100E60000132D2B29446DEE62000FFF7A9FC637A95
:100E70000133ED186572012007B0F0BD000C00428F
:100E80000018004210B50400FFF776FCAE21206A7E
:100E900000F018F92000FFF793FCA17C002905D091
:100EA000FB2200212000FFF74FFC10BD1B2001F0AA
:100EB000ABFBFAE770B504008AB0006A00F0BEF838
:100EC0000221206A00F0E2F80421206A00F0F2F822
:100ED000A57C002D44D0F72200212000FFF734FC30
:100EE000F72201212000FFF72FFC052001F024F854
:100EF000F82201212000FFF727FCF0220221200028
:100F0000FFF722FC0A2002AE01F016F82022324937
:100F1000300003F069F82000FFF7B4FF2000FFF76E
:100F20002BFC0025715D206A013500F0CBF8202DE7
:100F3000F8D12000FFF744FC05212000FFF7D8FD81
:100F40002000FFF705FE002240231100009320003F
:100F50002033FFF77FFC2000FFF7E0FD0AB070BDF3
:100F600001211B2001F004FB0121162001F000FBF0
:100F70000121262001F0FCFA01211A2001F0F8FAE3
:100F800029001B2001F040FB0121162001F03CFB51
:100F90000121262001F038FB01211A2001F034FB49
:100FA0000221132001F0E4FA0221192001F0E0FAF5
:100FB00002211E2001F0DCFA02211F2001F0D8FAE4
:100FC00029001A2001F020FB052000F0B5FF0121C7
:100FD0001A2001F019FB95E708470100037D002B5B
:100FE00004D14375837583610133037570477FB501
:100FF000C36802AD04000E0002916A608B4203D107
:10100000028AAB889A4218D02000062229000C30B0
:1010100002F0EAFF206800F032FB6B79227AE17976
:1010200000932068002300F0BFFC2068297932007B
:1010300000F0F6FA206800F018FB7FBD70B51826A6
:101040000400FFF7CBFF3300082120790D4D434307
:10105000EB18595601F01CFB33000821A0794343DB
:10106000EB18595601F014FB082160794643AD197D
:10107000695601F00DFB044B200006CBFFF7B7FFCC
:1010800070BDC046644701008402002010B5030013
:10109000032908D8080002F0EFFD070B0209002120
:1010A000186800F00DFB10BD0121F9E70221F7E7F8
:1010B0000321F5E710B50068032900D8042100F0EA
:1010C000E7FA10BD10B5006800F01AFB10BD000073
:1010D000114A124B12491360002353711371114AC4
:1010E00011601149D36091800D2191710A391172FB
:1010F000537413741375D3710C490D4A11600D4963
:10110000D36091801821917117395374137413753A
:10111000D17113727047C0468402002000093D005F
:101120003C0900204C0200200C0B00004809002064
:101130006802002016170000F8B505000E00170021
:101140000024BC4208D02B68315D1B6828009847FA
:10115000002801D00134F4E72000F8BD70470300F7
:10116000FC33196ADA69914203D01B6AC018007E09
:10117000704701204042FBE70300FC33D8691B6A3B
:10118000C01A01D50130FF3070470000F7B5019358
:10119000FA238026002504009B008360124B760012
:1011A00008330F00456029000092036032001830B8
:1011B00002F023FF23002000FC332130DD613200E8
:1011C0001D622900FF3002F018FF87239B00E318FF
:1011D0005D609D606B461B78276123756B461B79AC
:1011E000A57520006375FEBD404701008A230022DB
:1011F0009B00C1540C3BC3185A609A60012383754D
:101200007047020010B5FC32536894680133DBB2BA
:101210009C4202D054680155536010BD002210B5A5
:10122000837D93420DD087239B00C4186368A46814
:101230000133DBB2A34204D02130FF30FFF7E1FFDE
:101240000122100010BD0300FC3399685A689142D6
:1012500006D09A68805C9A680132D2B29A60704770
:1012600001204042FBE700228A2370B59B00827573
:1012700005000E00C15C006900F078FA002806D174
:101280000321286900F05CFA0224200070BD872346
:1012900028009B00EA18536894682130FF301C1B1B
:1012A00001D50134FF34002C0ED02C69FFF7CBFFA1
:1012B000C1B2200000F09CFA0028E8D1032128697F
:1012C00000F03EFA0324E0E7002EDED00321286977
:1012D00000F036FAD9E710B50121FFF7C4FF10BDC1
:1012E00010B51830FFF7AFFF10BD70B504000069EE
:1012F00000F09EFA002814D0206900F0A7FA002818
:1013000010D0206900F012FA0321206900F018FAC9
:101310008C239B00E558002D39D10023FC34E36178
:10132000236270BD206900F09BFA002809D0206973
:1013300000F091FA002804D0206900F096FA002805
:10134000DFD0206900F08CFA002826D1206900F057
:1013500078FA0028E5D0206900F087FA002837D015
:1013600087239B00E218536892689B1A01D50133CA
:10137000FF33FF21002B05D020002130FF30FFF785
:1013800062FFC1B2206900F045FAA075C9E7236881
:1013900020001B699847A847BFE7206900F0C6F9FD
:1013A0002069032100F0CCF9206900F05EFA0028E2
:1013B000B7D0872300229B00E3185A609A6001236C
:1013C000A3758B239B00E3589342AAD09847A8E7C4
:1013D0002200FC32D369126A0133DBB220699342E6
:1013E00006D100F09AF90321206900F0A9F998E7E5
:1013F00000F040FA010020001830FFF702FF2069DA
:1014000000F094F9EFE7000010B50248FFF76DFF18
:1014100010BDC0468C02002010B5262316220249BA
:101420000248FFF7B3FE10BD400900208C020020E7
:1014300010B5024800F01FFC10BDC046C0040020DB
:1014400010B5024800F017FC10BDC046FC06002095
:10145000F7B501240326154F1549380000F056F85A
:101460001449154800F052F81449154800F04EF898
:101470001449154800F04AF81449154800F046F898
:10148000144D1549280000F041F83900009623005A
:1014900001940022114800F083FB0096290001947A
:1014A0001E231F220E4800F07BFBF7BD38090020E9
:1014B00000080042000C00423C09002000100042DD
:1014C0004009002000140042440900200018004296
:1014D000480900204C090020001C0042C0040020E4
:1014E000FC060020F7B506000D000C008B180193D8
:1014F000019B671B9C4207D0336821781B68300032
:10150000984701340028F3D13800FEBD01607047D0
:101510009446F0B59E1E721E96416246056892077B
:101520002F6836063A4332432A60072505AC2478F3
:101530000068A4012940214342680024022B00D006
:101540005C03114321434160F0BD30B5C025036801
:10155000AD031C6812052A402243C0240904A402DA
:1015600021401143196003685A6814435C6030BD20
:101570000123026811680B43136003681A68D207DD
:10158000FCD4DA69D207F9D47047022302681168E3
:101590000B4313600268D3699B07FCD47047036850
:1015A0001A7ED20702D41A7E9207FCD57047002219
:1015B00003685A8370470368187E4007C00F70475E
:1015C0000368187EC0097047802302685B42117E61
:1015D0000B43137670470368588B8007C00F704722
:1015E00002230268518B0B43538370470368187EB4
:1015F000C007C00F70470368188DC0B270470368FA
:101600001A7ED207FCD589B20120198570470122C4
:1016100003689A757047012203681A7570470000C5
:1016200070B5012604684B0833403140256809072E
:101630005B070B432B43236004685100034802F00F
:1016400025FB0138C0B2207370BDC046006CDC02BF
:101650000123026811680B43136003681A68D207FC
:10166000FCD4DA69D207F9D4704702230268116802
:101670000B4313600268D3699B07FCD4704703686F
:10168000DA699207FCD402211A688A431A6070470B
:1016900070B504000E1E10D0FFF7F1FF31000748AF
:1016A00002F07EFB4100054802F0F0FA256801389F
:1016B000C0B228732000FFF7D8FF70BD006CDC02B9
:1016C00070B5012604000D00F14035400E40FFF7D3
:1016D000D6FF2368084A196876071140314319601C
:1016E0002268064913682D070B402B431360200026
:1016F000FFF7BBFF70BDC046FFFFFFDFFFFFFFEF3F
:101700000268936A5B0A5B021943916203681A7E5E
:101710005207FCD5986AC0B2704780230268DB028A
:10172000116851680B435360704700000368034918
:101730001A685A680A405A607047C046FFFFFBFFAC
:10174000032230B5036811401C68074D5A6809042C
:101750002A40E4061143640F5960052C03D1026846
:10176000D3695B07FCD430BDFFFFFCFF70B5056893
:1017700004006B8B9B069B0F022B0DD06B8B002004
:101780009B069B0F032B32D06B8B9B0704D56B8B77
:101790009B069B0F012B2AD16B6A49001143DB0A80
:1017A000C9B2DB020B436B622368002A13D11A7E95
:1017B000D207FCD55B8B9B069B0F022B04D04908FC
:1017C00000222000FFF7D2FF2368588B4007C30F89
:1017D000012058400BE0187E8007C00FF4D11A7E1C
:1017E000D207F8D5C022596892020A435A6070BDE8
:1017F0000368283319700368187EC007C00F03D12F
:101800005A8BD207F8D57047588B4007C30F012079
:101810005840F8E7036828331970036800201A7EDF
:10182000520704D5588B01234007C00F584070471A
:1018300003681868C006400F043843425841C0B2DC
:1018400070470368187E4007C00F70470368187E12
:10185000C007C00F70470368588BC006C00F7047A1
:101860000368187E8007C00F70470368588B000715
:10187000C00F704703681A68D206520F052A05D1B7
:101880001A7E920702D41A7ED207F9D52833187827
:10189000C0B270470368214A30B593422FD0204A26
:1018A00093422FD01F4A93422FD01F4A93422FD0EA
:1018B0001E4A93422FD01E4A93421FD10E23192253
:1018C0000121032599401B48C024016099082B4041
:1018D000AB40FC359D4089000918A4000859A84375
:1018E000C0259D402B0003430B518023DB011A438D
:1018F000114B5A805A7852B2002AFBDB30BD0923C3
:101900001422DDE70A231522DAE70B231622D7E794
:101910000C231722D4E70D231822D1E70008004238
:10192000000C004200100042001400420018004267
:10193000001C004200E100E0000C0040F8B504008B
:101940000F0016001D00FFF7A5FF2000FFF710FE97
:101950001C21BB000B4071072268090C0B4313606C
:10196000842322689375012F1AD11021012E00D0F3
:1019700008390C4B69431868C00002F087F9072248
:10198000216802408B895203DB04DB0C13438B81FB
:10199000226803049089DB0C400B400318439081BC
:1019A000F8BDC04650010020F7B50600019308AB12
:1019B0001F780D001400FFF74BFE3000FFF76AFFA1
:1019C000C022240592031440BA070C2717433C4356
:1019D000C0270722BF022D0433683D4025431D6008
:1019E000019B316813401A0080239B0213434B6014
:1019F000F7BD01207047000010B50368014A1B6A5B
:101A0000984710BD130400000300FC33D9699A699C
:101A1000914203D0DB69C018007D7047012040422D
:101A2000FBE710B504000069FFF7A2FD22000023C8
:101A3000FC329361D36186229200A4186360A36094
:101A400010BDF02001403039484248417047F02332
:101A50001B011940802306209B0099420AD00133C4
:101A6000FF330130994205D0802302385B00994250
:101A700000D0002070470F2001400020012903D032
:101A80000239481E8141481C704700008923F0B587
:101A9000182685B002919B000400C05C3300082129
:101AA0004343324D1700EB18595600F0F1FD304B0F
:101AB0000821E05C33004343EB18595600F0E8FD81
:101AC0002C4BE25C0393022A09D11133E05CFF281E
:101AD00005D008214643AE19715600F0D9FD8A267B
:101AE000B600A05DFF2819D0012100F041FD1822A9
:101AF000A35D21495A43AB56AD18DB0158188B2121
:101B0000890060501D4901225B188C2189006350B7
:101B100069688A408D21890062501A600122029B07
:101B200011002069FFF70AFF39002000FFF78FFF3F
:101B3000390005002000FFF79EFF39000600200055
:101B4000FFF77FFF33000090290020690122FFF793
:101B5000DFFC0B4B2069E25C039BE15CFFF7F5FCCB
:101B60002069FFF712FD05B0F0BDC04664470100D3
:101B700025020000270200001844004114440041DF
:101B800026020000802210B504005200002102F05D
:101B900034FA23000022FC335A6020009A6010BD02
:101BA000F7B51D0008AB1B780400009309AB1B7848
:101BB0001600019300234360FA239B008360114BBE
:101BC0000F00083303601430FFF7DCFF20001D30E6
:101BD000FF30FFF7D7FF89236A469B002761E65451
:101BE000094B1278E554094B2000E2546A46084B31
:101BF0001279E2548A22293BFF3B9200A35410320F
:101C0000A354FEBDB44B01002502000026020000D3
:101C1000270200000300FC3358689B68C01A01D5F6
:101C20000130FF30704710B5040020001D30FF3038
:101C3000FFF7F0FF0028F8D12069FFF7B0FC10BDD6
:101C400010B51430FFF7E6FF10BD0300FC335968F0
:101C50009A68914204DB5A689868801AFF3070478E
:101C600098685B68C01A0138F9E710B51D30FF307D
:101C7000FFF7EBFF10BD10B504000069FFF7ABFCE8
:101C8000002805D02069FFF7B6FC2069FFF7A8FC03
:101C90002069FFF790FC002820D02069FFF7ABFCFB
:101CA0002200FC329369D1690133DBB28B4203D04D
:101CB00091696118087593618A239B00E35CFF2B8F
:101CC0000CD020001430FFF7C0FF092806DC8B235E
:101CD0008D229B009200E358A2581A602069FFF7FA
:101CE00085FC00281AD020001D30FF30FFF792FF3E
:101CF000002822D086239B00E31899685A689142F5
:101D000018D08E219A684900A218515C9A68013255
:101D1000D2B29A60C9B22069FFF771FC2069FFF75F
:101D20004FFC002805D02069FFF74EFC2069FFF723
:101D30003EFC10BD01214942ECE72069FFF76BFC36
:101D4000ECE7000070B5040000690D00FFF74EFCE1
:101D500000283ED1FF2686239B00E3185A68996825
:101D6000013232408A4223D1EFF31083DB0710D4D3
:101D70001E4B5B68DB05DB0DEDD0103B5BB2002B2F
:101D800010DA0F221340083B9B08194A9B009B184E
:101D90001B682069FFF72AFC0028DCD02000FFF731
:101DA0006AFFD8E79B08C033124A9B009B58F0E7B4
:101DB0005A68013216409A68964205D08E215A68B8
:101DC0004900A21855545E602069FFF720FC0120ED
:101DD00070BD20001D30FF30FFF71CFF0028B9D177
:101DE00029002069FFF70BFCF1E7C04600ED00E099
:101DF0001CED00E000E100E0030070B5FC33D969A0
:101E00009A69040091421AD0DA698218157DDA695C
:101E10000132D2B2DA618A239B00E35CFF2B0CD043
:101E200020001430FFF711FF0A2806DD8C238D22D5
:101E30009B009200E358A2581A60280070BD01254B
:101E40006D42E8E7FEE70000034B10B51B68002B6E
:101E500000D0984710BDC0465009002070B50F490A
:101E60000F4CA14204D100F0AFF800F08DF8FEE76E
:101E70000C4D00238D42F6D0CA18E818A24205D3B3
:101E8000094B8242EFD00949002204E00068043384
:101E90001060F1E704C38B42FCD3E4E700000020AC
:101EA00000020020084D010000020020940F0020D5
:101EB00010B500F066F8002801D100F057F810BD09
:101EC000014B18607047C04650090020014B18684C
:101ED0007047C04654090020F7B5134801228446D4
:101EE0001249134C8E68636805689B0E134001927B
:101EF00088686268019F920E3A4067463F68934245
:101F00000ED1BD420CD186420AD35B19FA2548682E
:101F1000AD00861B07486B437043000DC018FEBD23
:101F20003D0013000600E3E75409002010E000E044
:101F300000ED00E05555000070B5041E10D0FFF70D
:101F4000CBFF050000F01CF8FFF7C6FF054B401B58
:101F50009842F7D9FA23013C9B00ED18002CF3D1ED
:101F600070BDC046E70300007047000010B5034A8B
:101F700013680133136000F0FDFB10BD540900200D
:101F8000704700207047704710B500F0E7F801F087
:101F9000F3FFFFF7F8FF0120FFF7CEFF084C20000A
:101FA00000F09AFE200000F039FFFEF711FBFEF76B
:101FB0002FFA044B002BFAD000E000BFF7E7C04631
:101FC00088090020000000001E22F0B55048514949
:101FD0004368514D93431A0002231343436008237F
:101FE0008A691343FE228B612B68D2039B02134044
:101FF0004A4A13434A4A936113000422DC6814429C
:10200000FCD00124474A14701678264203D0567833
:1020100076B2002EF8DB01249460547864B2002C70
:10202000FBDB414C5460547864B2002CFBDB82240F
:10203000E4015480547864B2002CFBDB02249C84BD
:102040000E34DE682642FCD0384CDC621024DE6898
:102050002642FCD02C68A40E3F2C00D1203C9E6A66
:10206000334FA4023E4034439C629C6A314EA40A22
:10207000A40234439C62304CDC6200249C84103403
:10208000DE682642FCD02D4C9C841024DE6826425B
:10209000FCD002249E8C34439C841024DE682642AB
:1020A000FCD000249460547864B2002CFBDB244CF8
:1020B0005460547864B2002CFBDB1C6A214E34401F
:1020C00080261C621C6AB4431C62032393601E4B6F
:1020D000536053785BB2002BFBDB0023FF240B72B1
:1020E0001A4A4B728B72CB72194B1A60194A2B68C1
:1020F00011689A065B01C90E2340520F12020B436E
:102100001343154A13858023426813434360F0BD8F
:1021100000400041000400402460800006030000ED
:1021200000080040000C004001040100B905FF7DDB
:10213000FF03FFFFFF01000080BB0A1C2405000015
:1021400000070300FFFCFFFF03060100006CDC0238
:10215000500100202060800000400042FA21314BF5
:1021600010B51868890001F091FD2F4B0138984295
:1021700056D82E492E4A4860C020136A00061B021A
:102180001B0A03431362002407238C600B60802129
:10219000136A09061B021B0A0B431362FC22254B20
:1021A000196A0A431A62FC22196A92010A431A62E6
:1021B000A022196AD2020A431A62200000210134C7
:1021C00000F0D6F9142CF8D11B4B1C005A7852B2EF
:1021D000002AFBDB194A5A80194B1A00597EC9099B
:1021E0000129FBD0E421C90099803F21D970537E99
:1021F000DB09012BFBD0C02300205B011361907031
:1022000000F02EF863785BB2002BFBDB0D4B0E4A1F
:102210006380D379DB09012BFBD04123537010BDC0
:10222000FEE7C04650010020FFFFFF0010E000E085
:1022300000ED00E000040040000C00401E400000E3
:10224000004000422140000000480042914202D07C
:1022500002D98A1AD0407047521A9040FBE700001A
:10226000164A00B51300517EC9090129FBD0013877
:10227000042816D81969124A0A400F211A615A789F
:102280008A4301F0F9FC0308060B03001100012248
:102290000A435A7000BD11000322F9E7110002221F
:1022A000F6E7F02311691B050B430F2113615378E7
:1022B0008B43190002230B435370EBE700400042AD
:1022C000FFFFFFF010B504000D2800D80E340121E7
:1022D000200000F0DDF91823102163432A4CE41894
:1022E0006156002901D014290DD1284B1800DA7944
:1022F000D209012AFBD002241A78A2431A70C379AA
:10230000DB09012BFBD022480300427ED209012ABF
:10231000FBD01F2402692140A2430A4302615A7E76
:10232000D209012AFBD0022219780A431A705A7E78
:10233000D209012AFBD00222197B0A431A731A7EA2
:10234000D207FCD501221A765A7ED209012AFBD087
:102350000222197B0A431A731A7ED207FCD5588BC6
:1023600080B25A7ED209012AFBD002211A788A4310
:102370001A705A7ED209012AFBD0064B1A68064B06
:102380001968FFF763FF10BD644701000048004271
:10239000004000425801002054010020182343430C
:1023A000F0B56A4A87B09B18DA6806000C00009204
:1023B000920722D51B7C5BB2002B01D0142B1AD1C3
:1023C000634B0A2219682000FFF740FF614A13009F
:1023D000D179C9090129FBD08005800D1081DA79F6
:1023E000D209012AFBD0022219780A431A70DA793D
:1023F000D209012AFBD007B0F0BD0827009A544D3E
:102400003A40019200D191E012229B5E296820009F
:1024100010220193FFF71AFF019B05001F126B4664
:102420001C79009B0421DB0600D40521300000F05C
:102430002FF9494BBA00D658484BDA5D002A54D1DF
:102440000132DA5546490F3202A801F0CDFD02AA49
:102450007B009B5A8022D2011A43424B5A805A7801
:10246000D209012AFBD0022297421BD93388934319
:102470003380F37BDB09FCD1328840331343338054
:10248000F37BDB09FCD10C34ADB26400A553F37BC4
:10249000DB09FCD13288023313433380F37BDB0941
:1024A000FCD1A8E7336893432F4A33601300B16827
:1024B0001142FCD10222F16B0A43F263B2681A4264
:1024C000FCD11034A40034196560B2681A42FCD102
:1024D000264A3264B2681A42FCD1022231680A43A9
:1024E0003260B2681A42FCD185E7022F07D90C345A
:1024F000ADB26400A553F37BDB09FCD17BE702237B
:10250000727913437371184B1A00B1681942FCD1E8
:102510001C34A400A551B3681342FCD102233179C5
:102520000B433371B3681342FCD164E7012100F01F
:102530001FF829683A002000FFF788FE01997F28DC
:1025400000D90121300000F05FF854E76447010032
:102550005C0100200048004238010020580900209A
:10256000E84B0100000C0040FF0F7F00FFFF000060
:10257000182330B51D00040045430820204A551992
:102580002856013014D0032912D808006343D156CD
:10259000D31801F071FB02280E1B5868CB010221F1
:1025A000184A9B181A1840321170012282405A6052
:1025B00030BD5868CB010621124A9B181A184032C8
:1025C0001170012282405A609A61F1E75868CB018C
:1025D00006210C4A9B181A184032117001228240C1
:1025E0005A605A61E4E75868CB010221054A9B18FA
:1025F0001A1840321170012282409A60D8E7C04612
:1026000064470100004400411823F0B508245843F2
:10261000114A13181C5701341BD0012635005F687E
:102620008356BD400D4ADB019A18906805420BD1D4
:102630000C00601E8441D2194032107834400336B9
:10264000A400B04320431070044A9B18002901D114
:102650005D61F0BD9D61FCE76447010000440041FD
:10266000182310B50824434307490020CA181457FB
:10267000013408D05B560549DB015B18186A5368C2
:10268000D8400123184010BD6447010000440041B8
:1026900018224243F8B52C4E0300B218127A52B2F7
:1026A000140001320ED0481C00240C280AD801F076
:1026B000E3FA071F1F1F1F1F1F1F1F0B0B0B0B0012
:1026C000012464422000F8BD092905D10021180029
:1026D000FFF74EFF0024F5E70A2901D10839F6E794
:1026E00000240B29EED10A391800FFF741FFE9E772
:1026F00018225343F218556801202C00F356134A50
:10270000DB016E089B18C9B204409E19002C0DD045
:102710000F2430363278090122401143C9B25B19C7
:10272000317040331A7810431870D3E732000F2706
:10273000303216785B19BE433143117040331A783A
:1027400010431870BEE7C0466447010000440041D2
:1027500010B50400FFF708FC014B1C6010BDC0461B
:10276000600100200122024B52421A607047C046AD
:1027700060010020164A10B51368591C26D0013B91
:102780001360002B22D172B6124B134A04339342CA
:1027900013D9124A01211000147D0C42FCD02021D3
:1027A000148BFF319B085B0021431183D3610C4BD9
:1027B00013800123027D1A42FCD0BFF34F8F094BD7
:1027C000094ADA60BFF34F8FC046FDE710BDC0462F
:1027D00060010020000001000302000000400041F1
:1027E00002A5FFFF00ED00E00400FA05704710B5F8
:1027F000040000F0CFFF200010BD0000F0B58229DA
:1028000019D1C3B2294D5A01AA189169284C8001E7
:102810000C40C021890521439161264908334018A5
:102820007021506128685B011A5C8A4311003022D4
:102830000A431A54F0BD0029FCD1C026C1B21B4C7A
:102840004B01E3189A681A4DB6052A4032439A6044
:10285000194A800182185A600A0007272468083242
:102860005201115DB9430F000121394311559F6990
:1028700010493D4040182E439E6158617020115D03
:102880008143080010210143115599680B48A21893
:10289000084080214903014399609968890B8903A5
:1028A0009960402311790B431371C3E7400E002058
:1028B000FFFFFF8FB4090020740B0020FF3F00F0E2
:1028C000EFF3108303600123436072B6704703681F
:1028D000002B02D162B6BFF36F8F7047F7B50600C9
:1028E000FC36B3690400002B18D1B2277F00C55D08
:1028F0006846FFF7E5FF019BEDB2013B02D3E55DC2
:10290000EDB2FAE768460193FFF7E1FF002D01D130
:102910000020FEBD706E336EC01AFAE76846FFF7FE
:10292000CFFFD8220025019B5200013B02D3A55CBA
:10293000EDB2FAE768460193FFF7C9FF002DE7D033
:10294000D6235B00E058043BE358E5E710B5446844
:10295000FC3043690B48DBB25A01A2189168083376
:102960000840802149030143916091685B01890B14
:10297000890391602268D318402219790A431A7199
:1029800010BDC046FF3F00F0F7B50500FC356B6990
:102990004268DBB21900040008311068490141188F
:1029A000C979C90711D55B01D21893689B049B0CA8
:1029B0000CD12000FFF7CAFF63681A686B69DBB2AD
:1029C00008335B01D3187F22DA71F7BDE96900296A
:1029D00023D16B66230001266933FF33EE6168461D
:1029E0005360B227FFF76CFF7F00B221019BFF31DC
:1029F000013B5A1C38D0D822E6555200A25C581E22
:102A0000D2B26254625C8446002A04D12000019351
:102A1000FFF79CFFE9E76346EBE7D62149006350E7
:102A20000023EB6123001D33FF3353606846D82633
:102A3000FFF746FF01277600B221019BFF31013BE2
:102A40005A1C11D0B222A7555200A25C581ED2B215
:102A50006254625C8446002A04D120000193FFF78F
:102A600075FFE9E76346EBE768460193FFF72FFF41
:102A7000A2E7F7B5060068463400FFF721FF0027FC
:102A8000FF22019BFC34013B0DD3E06821698842A1
:102A900004DBE7682069D71B3F18F4E72769E16882
:102AA0007F1A013FEFE768460193FFF710FFA36924
:102AB0006846002B52D1FFF703FFB221019B49006A
:102AC000013B5A1C0CD0755C5A1EEDB2002D05D18D
:102AD00068460193FFF7FBFE2800FEBD1300F0E7F8
:102AE000684601930025FFF7F2FEFF22236EBD42E8
:102AF00014D0616E994211D9591CF3182166FF3325
:102B0000587FE36821690133C0B213408B4203D080
:102B1000E16871180872E3600135E7E7626E9A4276
:102B2000DAD1002323660133A3616846B224FFF79C
:102B3000C7FE6400B2220021019BFF32013B581CFA
:102B4000C6D03155B05C5F1E002805D0B1543000AE
:102B50000193FFF7FBFEEDE73B00F0E7FFF7B0FE68
:102B6000D821019B4900013B5A1C06D0755C5A1EB6
:102B7000EDB2002DACD01300F6E768460193FFF7E5
:102B8000A6FED623D4225B0000259C465200B358F3
:102B9000BD4203D061467158994220D86246B2586E
:102BA0009A4299D1D42200235200B3506846A361BF
:102BB000D824FFF785FE6400B2220021019BFF327A
:102BC000013B581C00D183E73155B05C5F1E0028E3
:102BD00019D0B15430000193FFF7B8FEECE7591C4F
:102BE000B150FF21F3186933FF331878E368C0B29E
:102BF00001330B4021698B4203D0E16871180872E0
:102C0000E3600135C3E73B00DBE710B50400FFF7E5
:102C100030FF2300FC331969DA68914203D01B6945
:102C2000E418207A10BD01204042FBE710B50400F3
:102C3000FC34FFF71EFFE0682369C01A01D501309C
:102C4000FF3010BDF0B585B0019200910500FFF78F
:102C500010FF02A8FFF734FE01200024FF26039B8B
:102C600040425A1E531C1FD02B00FC3301998C424A
:102C700018D2D9681F69C91B01D50131FF3100295C
:102C800010D01969DF688C460100BC4506D019696F
:102C90001F69691801373740097A1F61009F39554C
:102CA0000134E3E7013ADDE702A80392FFF70FFEE4
:102CB000200005B0F0BD37B56B46DC1D00230D00CC
:102CC000237000F0C7FF210000F044FF2B681818A4
:102CD000286020783EBD00002023F7B5414A05005A
:102CE000D1690F200B43D36101223F490B78134375
:102CF0000B703E4B19788143197006211C782143D3
:102D000019703B490C7822430A701A7802401A70F5
:102D1000602219780A431A70364B374A5A805F7816
:102D2000FF09FCD13548FFF7CBF80123344C354E71
:102D30002268300011780B43137080223900520052
:102D400001F05BF922689378DB07FCD456621F26FA
:102D50002D4B1B68590B980C9B01314030405B0F89
:102D6000B14200D105211F2800D10238072B00D124
:102D7000043B31408901178D0191244930400F40B7
:102D8000019939431185118D0700B143080038437B
:102D90001085118D18031E4B0B407F2103431385B3
:102DA0001378C1200B40137004232268800011782F
:102DB0000B430C211370226813898B43154913812F
:102DC0000B581B021B0A0B5080230B6011787E3BB3
:102DD0000B431370012300212B700F4800F0AEFE4F
:102DE000F7BDC04600040040584400413C44004147
:102DF00059440041000C0040064000006D370100BE
:102E0000400E0020440E0020246080003FF8FFFFA9
:102E1000FF8FFFFF00E100E0440F00200078002852
:102E200010D00121084B1B681A898A431A81082295
:102E3000198B0A431A830422198B0A431A8300222E
:102E4000024B1A607047C046400E0020380E00202A
:102E500010B50F4A93699B0B9B0393611368022281
:102E6000FF331A729879823A02439A711A7A92075A
:102E7000FCD57F24074A2140937A0800A343190018
:102E8000802301439172917A5B420B43937210BD90
:102E9000400E00200050004110B50C0000F0DAFE9A
:102EA000210000F08EFE002804D1034A93699B0B99
:102EB0009B03936110BDC046400E0020F7B50D0086
:102EC000832A19D1CBB2404C5A01A21891693F48CC
:102ED000AD010840C0218905014391613C4920684A
:102EE0006D187021083355615B011A5C8A4311002B
:102EF00040220A431A54F7BD022A5FD1354B8A009B
:102F0000D058002802D003685B699847DA20400057
:102F100000F03CFC802204002B4E2F4B46600360E7
:102F200052000021083001F068F82200B22100238D
:102F3000FC324900D3605561136113669361D3611C
:102F40005366635444316350043163500431635415
:102F5000B221FF316354FF202B000340590101933C
:102F600071188F68194BAD003B40C027BF051F4348
:102F70008F600727019B366808335B01995DB94371
:102F80000F000321394399552300516966680140B8
:102F90001D334901FF3371184B60636852691B6828
:102FA000024052019B1801221B18997A20000A4303
:102FB0009A72FFF7CBFC074BEC509CE711002800FE
:102FC000FFF71CFC97E7C046400E0020FFFFFF8F75
:102FD000B40900208C090020004C010070B50500E8
:102FE0000124064BA200D258002A06D02100280056
:102FF0000134FFF763FF0A2CF3D170BD6009002094
:103000000B4BCAB20B488901C9185301C318596147
:1030100099690832890B89039961036852019A18EA
:103020000223D3715179823B0B4353717047C046E1
:10303000B4090020400E0020084B8A00D05810B57B
:10304000002803D003689B68984710BDC9B2044BA1
:103050004901591888688004800CF6E78C09002023
:10306000400E002010B50C00FFF7E6FF00280CD042
:10307000064BE4B21B68083464011C198023627992
:103080005B42134363710223E37110BD400E0020C5
:10309000F0B51C002A4B85B01B6807000D0002929A
:1030A000002B4AD0274B8A00D058002808D003684C
:1030B00022005B68029998470400200005B0F0BD2B
:1030C0003800FFF7B9FF844204D929003800FFF720
:1030D000B3FF04000121EBB21B4E03935B0101938C
:1030E000F21893689B0B9B039360019A33680298D4
:1030F0009B18FF335A7A0A435A72144BA901C91814
:10310000220000F071FF002CD7D029003800FFF713
:1031100093FF0028D1D14021039B326808335B0123
:10312000D3181879014319710121D971019BD31862
:10313000FF339A7A0A439A72BFE701246442BCE7DC
:10314000380E00208C090020400E0020740B002057
:1031500013B56B46DC1D22000123FFF799FF012800
:1031600001D1207816BD01204042FBE770B5CBB2FB
:10317000124A13485C01890189180219516091684B
:10318000104D08330D4080214903294340259160AB
:103190009168890B8903916001685A018A18167930
:1031A0003543157195796D06FCD55B01C918CB794E
:1031B000DB07FCD500198068C0B270BD740B00201D
:1031C000400E0020FF3F00F070B50D0000211400FC
:1031D000FFF7CCFFA04200D9200000230349A342FF
:1031E00003D0CA5CEA540133F9E770BD740B0020C8
:1031F000F0B51E003A4B85B01B680F000192002B02
:1032000035D08023DB019E4231D80025354B8A0121
:10321000D3180293002E2CD0334B1B680393FF234B
:103220003B401C0000930834039B64011C19A379E4
:10323000DB0921D02D4B2E49186800F027FD2D4BBE
:103240001721584300F022FD2B4BE279920713D44B
:10325000DA5D002A01D10138F7D20122DA55009B4C
:103260005A01214B9B189A69920B92039A6101258E
:103270006D42280005B0F0BD00221F4B3400DA5526
:103280003F2E09D9009B40245A01174B9B188022DE
:10329000996912060A439A6122000199029800F086
:1032A000A3FE009BA1045A010F4B890C9B18029AA4
:1032B0002D195A619A69361B920B92030A439A613F
:1032C000009B039A08335B01D3180222DA71597903
:1032D000823A0A435A71019B1B1901939AE7C0462F
:1032E000380E0020B4090020400E002050010020BC
:1032F00040420F0070110100A909002070B50D00B7
:103300001C000D4BAE01F61811003000220000F039
:103310006BFEEDB209496D014D196E61AB69084A4A
:1033200020001340AB61AB69A2049B0B920C9B0382
:103330001343AB6170BDC046B4090020400E0020AD
:10334000FF3F00F0F7B5104B01901B780F00150000
:10335000002B0CD10D4B16001C78002C09D00C4E04
:103360000C4834882018641900F03EFE3480280090
:10337000FEBD002EFBD03A19330000210198FFF763
:10338000BDFF2418361AF4E7340D0020350E002056
:10339000360E0020350D0020F8B50F001600002471
:1033A000012A26D9100000F00BFE0500380000F0BD
:1033B000E7FE032302220130400028706B70964222
:1033C0000DD9397800290AD0531CDBB20137A95432
:1033D0009E4203D00232EC54D2B2F0E73200290010
:1033E0000548FFF7AFFF441EA041C4B2280000F01B
:1033F000F1FD2000F8BDC04688090020F0B500248A
:10340000012685B0184B0F0069461E700500009418
:10341000FFF751FC154B01A90B806A3BFF3BCB71B9
:103420005A330B72009B8C7109334B800E4B4E71DB
:1034300008711C703A00092F0FD00D4F09223E7001
:103440000C4E280000943480FFF77CFF694628006A
:10345000FFF731FC328808493C702800FFF772FF03
:10346000012005B0F0BDC046340D00200902000067
:10347000350E0020360E0020350D002070B5CE78B8
:1034800092B005000C00022E0BD18B79C9792E4821
:1034900009021943FFF7B2FF411E8841C0B212B0C2
:1034A00070BD00F0D7FB210000F068FB002803D0BE
:1034B000C117081AC00FF2E7012E0ED1E279A379E5
:1034C00012021A432149112A3CD8D2B2002A39D01B
:1034D0002800FFF737FF0120E1E7032EDFD1A378B3
:1034E000002B28D0022B08D1E279A37912021849C7
:1034F0001A432800FFF750FFD1E7012B05D1E279ED
:10350000A37912021A431349F3E7032BC7D1010031
:10351000412201A800F071FD00F09CFB01A900F020
:103520003DFB002805D0E279A37912021A4301A9D4
:10353000DFE70378FFDEE279A37912021A43064936
:10354000032AC2D90A78C3E788090020394C010050
:103550001C4C01002C4C0100284C0100CBB204494A
:103560005B01C9188B699B0B9B038B617047C0463D
:10357000400E002037B5050048780C000B2810D805
:1035800000F07AFB061B0F2B0F404561494C5A5D3A
:10359000097801AA002906D1022311802800FFF72B
:1035A000ADFE01203EBD00231380284B1B78012B6C
:1035B00000D1137002230021F0E78A780023012A4A
:1035C00003D101AA1380224BF0E7204A1370214A4D
:1035D00093699B0B9B039361E3E78C78012C06D1E5
:1035E00000211B4B01AA1C7011702300D6E701209B
:1035F000002CD7D1154B174A187093699B0B9B036E
:103600009361CFE789782800FFF722FCC9E72800FB
:10361000FFF734FFC6E701230F4ACCE70B78002001
:10362000DB06BFD12800FFF7D9FCA2780A4B0B4874
:103630001A6000F06BFACAE70123094ABBE78A78EF
:10364000074B1A60C3E70020ACE7C046A80900207A
:10365000B0090020400E0020380E0020440F00204A
:103660003C0E00203B4BF7B51E780500002E5FD1C5
:10367000394C23689A8B12070DD5082231009A83A2
:103680003000FFF7BBF810222368FF33997A0A4312
:103690009A72324B1E6023689A8B520701D504221E
:1036A0009A83FF331A7A920603D52022597A0A4365
:1036B0005A721A7AD20623D569460800284AC0CA27
:1036C000C0C0A268920B9203A260402258790243C4
:1036D0005A7160230A7828001A422AD1FFF74AFF5C
:1036E0002368FF33002827D08022997952420A4369
:1036F0009A711A7A520603D54022597A0A435A72AD
:103700007F2601252368FF331E722F0023680837A8
:103710007F01DB19DB79002B07D0124BAA00D058B0
:1037200000280DD003681B6898470135082DECD19F
:10373000F7BDFFF7B1FBD3E720210B4A9171D8E722
:1037400000F088FA290000F04CFA2368DF19FE71B6
:10375000EBE7C046350E0020400E0020380E00205A
:10376000740B00208C090020FF50004110B5024866
:10377000FFF778FF10BDC04688090020014B024AC0
:103780001A607047400E00200050004110B500F054
:1037900017FC10BD10B500F01DFC10BD00207047D7
:1037A00070B50F26CB1D013902003240D5B22C0076
:1037B00000093034092A00DD07341C70013B8B42BC
:1037C000F2D170BD10B50C000B4B1868FFF7E8FF85
:1037D00021000A4B08311868FFF7E2FF2100084B6F
:1037E00010311868FFF7DCFF2100064B183118680C
:1037F000FFF7D6FF202010BD0CA0800040A0800065
:1038000044A0800048A0800008B4024B9C461038B9
:1038100008BC6047C537010070473F20704713B5AB
:103820006B460268D9710733546819000122A0471A
:1038300016BD000070B50A260B7892B06E440233B4
:1038400005000B703C220021300000F0D6FB394807
:1038500001AC06903848242107900620207768465E
:10386000364AA1742281364A364BA281FD3AFF3A8C
:103870008018C177684623390630C177684607301B
:10388000C17702A8C1770720F2770326083169447F
:10389000C87703A9CE7710212B366E4431700926E4
:1038A00021851F3169440E700CA9053E0E7033212D
:1038B0002380022369440B7006360DA90E7022493D
:1038C0003536A1863B216E44307010A86274E277D1
:1038D00002703D3269446A440B701370402100222B
:1038E000E37023716371A37341336B4421871970B3
:1038F0005A702B7DC039A370A37263770133DBB29A
:10390000A3776A7D0B200D0068441543C5773120ED
:10391000684403703A23501C6B44187041230232F0
:103920000A436B441A70210042220848FFF70AFD3F
:1039300012B070BD10010424020605240904000021
:1039400001020000080B00000705000088090020A4
:1039500008B4024B9C46103808BC6047353801005B
:1039600070B5027D0B790C0000259A420BD10B78C3
:103970004E78A12B09D1212E05D107221F492048BD
:10398000FFF7E0FC0135280070BD212BFBD1202E74
:103990002BD1072219491A48FFF716FC174B1A7842
:1039A0005978090211439A7812041143DA78120601
:1039B0000A439621C9008A421DD1DB79DB071AD45C
:1039C000FA20FEF7C5FE00210D48FFF7C7FD0125CF
:1039D000232ED8D1E378A2781B021343094A002191
:1039E00007481360FFF7BAFDCDE7222EEFD18A78A2
:1039F000024BDA71D2E7FEF7B5FEE4E7680100207A
:103A0000880900206401002008B4024B9C4610384D
:103A100008BC60476139010010B5417D006A013181
:103A2000FFF70AFB034B1B6801335A1E934118181A
:103A300010BDC0467001002010B5417D006A023102
:103A4000FFF710FB10BD10B5417D006A0231FFF792
:103A5000D7FA10BD70B50D00417D0400130002318E
:103A60002A00006AFFF7C4FB002801D1012363602C
:103A700070BD000010B5054C23685A1C04D10368C2
:103A80005B69984703002060180010BD700100209A
:103A9000074A0300106810B5411C03D001235B42A4
:103AA000136010BD597D186A0131FFF751FBF8E72B
:103AB000700100207047002070470000FA239B002F
:103AC00010B583600F4B0022C3820300283383614B
:103AD0000D4B04004260C26118004433236108307A
:103AE000631D21622060DA778323A362813BE36256
:103AF0008033236300F0AEF82100103100F07EF82F
:103B0000200010BD030200004C4C0100022110B542
:103B1000094B1A68437D5B01D318FF339C7A21431C
:103B20009972437D0133DBB25B01D3180122FF336D
:103B3000997A0A439A7210BD400E00207047000027
:103B400010B502490248FFF7B9FF10BD88090020EF
:103B5000440F002070B50E0000254468002C0BD0E7
:103B6000236831005B6820009847002802DB2D188D
:103B7000E468F3E701256D42280070BD70B50D00C3
:103B80004468002C08D0236829009B6820009847CF
:103B9000002802D1E468F4E7200070BD70B50D0084
:103BA00000264468002C09D02368290020001B69E6
:103BB000984736182D18F6B2E468F3E730002C70F9
:103BC00070BD70B50D004468002C08D02368290032
:103BD0001B6820009847002802D1E468F4E7200021
:103BE00070BD70B50D004468002C06D0236820001D
:103BF000DB6829009847E468F6E770BDF0B58C797A
:103C0000457803002A190020072A1FDC5A688242DF
:103C100016D159601A78C8790A7112184D711A7044
:103C200000220B4DD0B284420FD98F68587896008D
:103C3000F75986000130775101325870F2E70200DF
:103C4000D0680028FBD1D160E4E70120F0BDC04678
:103C5000600900200121064A10B5136805480B4091
:103C600004D18024640004804360116010BDC0460C
:103C7000780F00207C0F002002B4714649084900EB
:103C8000095C49008E4402BC7047C04600224308CC
:103C90008B4274D303098B425FD3030A8B4244D314
:103CA000030B8B4228D3030C8B420DD3FF22090256
:103CB00012BA030C8B4202D31212090265D0030B15
:103CC0008B4219D300E0090AC30B8B4201D3CB030B
:103CD000C01A5241830B8B4201D38B03C01A52414D
:103CE000430B8B4201D34B03C01A5241030B8B424F
:103CF00001D30B03C01A5241C30A8B4201D3CB023A
:103D0000C01A5241830A8B4201D38B02C01A52411E
:103D1000430A8B4201D34B02C01A5241030A8B4221
:103D200001D30B02C01A5241CDD2C3098B4201D339
:103D3000CB01C01A524183098B4201D38B01C01AB7
:103D4000524143098B4201D34B01C01A524103092E
:103D50008B4201D30B01C01A5241C3088B4201D3DD
:103D6000CB00C01A524183088B4201D38B00C01A8A
:103D7000524143088B4201D34B00C01A5241411AB1
:103D800000D20146524110467047FFE701B50020BE
:103D900000F0F0F802BDC0460029F7D076E7704782
:103DA00003460B437FD4002243088B4274D303099C
:103DB0008B425FD3030A8B4244D3030B8B4228D33D
:103DC000030C8B420DD3FF22090212BA030C8B4263
:103DD00002D31212090265D0030B8B4219D300E003
:103DE000090AC30B8B4201D3CB03C01A5241830B88
:103DF0008B4201D38B03C01A5241430B8B4201D338
:103E00004B03C01A5241030B8B4201D30B03C01A60
:103E10005241C30A8B4201D3CB02C01A5241830ADA
:103E20008B4201D38B02C01A5241430A8B4201D309
:103E30004B02C01A5241030A8B4201D30B02C01A33
:103E40005241CDD2C3098B4201D3CB01C01A52419A
:103E500083098B4201D38B01C01A524143098B4223
:103E600001D34B01C01A524103098B4201D30B010C
:103E7000C01A5241C3088B4201D3CB00C01A524131
:103E800083088B4201D38B00C01A524143088B42F6
:103E900001D34B00C01A5241411A00D2014652418F
:103EA000104670475DE0CA0F00D04942031000D3AE
:103EB0004042534000229C4603098B422DD3030A03
:103EC0008B4212D3FC22890112BA030A8B420CD313
:103ED000890192118B4208D3890192118B4204D33C
:103EE00089013AD0921100E08909C3098B4201D3BC
:103EF000CB01C01A524183098B4201D38B01C01AF6
:103F0000524143098B4201D34B01C01A524103096C
:103F10008B4201D30B01C01A5241C3088B4201D31B
:103F2000CB00C01A524183088B4201D38B00C01AC8
:103F30005241D9D243088B4201D34B00C01A52419F
:103F4000411A00D20146634652415B10104601D32C
:103F50004042002B00D54942704763465B1000D3B6
:103F6000404201B5002000F005F802BD0029F8D05C
:103F700016E770477047C04670B500260C4D0D4CD3
:103F8000641BA410A64209D1002600F011F90A4DC5
:103F90000A4C641BA410A64205D170BDB300EB58B7
:103FA00098470136EEE7B300EB5898470136F2E741
:103FB000D8010020D8010020D8010020F401002001
:103FC00010B5034B0100186800F06AF810BDC04638
:103FD0007401002010B5034B0100186800F016F8BA
:103FE00010BDC04674010020002310B59A4200D1D4
:103FF00010BDCC5CC4540133F8E70300121893429F
:1040000000D1704719700133F9E7000070B5050061
:10401000002910D00C1F2368002B00DAE4182800B8
:1040200000F0B5F81D4A1368002B05D163601460D9
:10403000280000F0ADF870BDA34209D921686018CE
:104040008342F3D118685B6841182160EEE71300E2
:104050005A68002A01D0A242F9D919685818A0421A
:104060000BD120680918581819608242E0D11068F5
:104070005268411819605A60DAE7A04202D90C234D
:104080002B60D5E721686018824203D1106852681E
:104090004118216062605C60CAE7C046840F00205E
:1040A000032370B5CD1C9D43083506000C2D1ED290
:1040B0000C25A9421DD8300000F069F8254A146883
:1040C0002100002919D1244C2368002B03D1300092
:1040D00000F044F820602900300000F03FF8431C55
:1040E0002BD10C233000336000F052F803E0002D98
:1040F000DFDA0C233360002070BD0B685B1B19D422
:104100000B2B03D90B60CC18256003E04B688C4265
:104110000DD11360300000F03BF8200007220B3077
:10412000231D9043C31AE7D05A42E250E4E763608C
:104130000C00EFE70C004968C3E70323C41C9C4351
:10414000A042E1D0211A300000F008F8431CDBD176
:10415000C7E7C046840F0020880F0020002370B5F9
:10416000064C05000800236000F014F8431C03D13E
:104170002368002B00D02B6070BDC046900F00203C
:104180000023C25C0133002AFBD1581E70477047E0
:1041900070470000044A1368002B00D1034B181825
:1041A000106018007047C0468C0F0020940F00204C
:1041B000F8B5C046F8BC08BC9E467047F8B5C04686
:1041C000F8BC08BC9E4670470000000000000000DC
:1041D00000000000800080808080800000000000DF
:1041E0000000A0A0A000000050F8505050F850006F
:1041F0000020F0282870A0A07820008C4C2010C847
:10420000C4000000006C90906C9090600000000072
:10421000000000008080800000006080808080803E
:1042200060000000C02020202020C00000000050BE
:1042300020F8205000000000002020F8202000007E
:10424000804040C00000000000000000000000F8B6
:10425000000000000000800000000000000000805E
:10426000402010080400000000007088C8A898884A
:1042700070000000F8202020A06020000000F880DE
:10428000807008887000000070880830088870000E
:1042900000000808F888482818000000708808887E
:1042A000F080F8000000708888F0808870000000BE
:1042B000202020100808F800000070888870888886
:1042C0007000000070880878888870000000000086
:1042D000800080000000804040C00000800000009E
:1042E0000000002040804020000000000000F80096
:1042F000F800000000000080402040800000000026
:10430000200020300888700000007880B8A8B888A5
:1043100070000000888888F8888870000000F088A5
:1043200088F08888F00000007088808080887000A5
:104330000000F08888888888F0000000F88080F00D
:104340008080F8000000808080F08080F80000000D
:1043500070889880808870000000888888F8888835
:1043600088000000F82020202020F800000070883D
:1043700088080888F8000000888890E09088880005
:104380000000F88080808080800000008888A8A8D5
:10439000D88888000000888898A8C888880000000D
:1043A00070888888888870000000808080F0888805
:1043B000F000000870888888888870000000889065
:1043C000A0F08888F0000000F00808708080780075
:1043D0000000202020202020F8000000708888881D
:1043E000888888000000205088888888880000001D
:1043F00050A8A8A8A8888800000088885020508865
:104400008800000020202020508888000000F880CC
:1044100040201008F8000000E08080808080E000EC
:10442000000408102040800000000000E020202050
:104430002020E00000000000000088502000000064
:10444000F800000000000000000000000000004034
:104450008000000070907010600000000000E0908C
:104460009090E080800000007080808070000000EC
:104470000000709090907010100000007080F0901C
:1044800060000000000040404040E040300060100C
:104490007090909070000000000090909090E080EC
:1044A00080000000E0404040C0004000C0202020CC
:1044B0002020E0004000000090A0C0A0908080007C
:1044C0000000E04040404040C0000000A8A8A8A86C
:1044D000F0000000000090909090E00000000000CC
:1044E00060909090600000008080E0909090E000EC
:1044F000000010107090909070000000000080800C
:104500008090E00000000000E0106080700000007B
:10451000000030404040E04040000000609090903B
:1045200090000000000020509090900000000000DB
:1045300050A8A8A88800000000009090609090000B
:104540000000601070909090900000000000F080DB
:104550006010F00000000000704040C0404070005B
:10456000000080808080808080000000E02020307B
:104570002020E0000000000090A84800000000009B
:104580000A207E008C450100C841010004000000A3
:1045900001000A000300140005001E0005002800A9
:1045A0000600320006003C000100460003005000F7
:1045B00003005A000500640005006E000200780048
:1045C0000500820001008C00060096000500A00096
:1045D0000500AA000500B4000500BE000500C800E3
:1045E0000500D2000500DC000500E6000500F00033
:1045F0000500FA000100040102000E010300180189
:104600000500220103002C010500360105004001D0
:1046100005004A010500540105005E01050068011E
:104620000500720105007C0105008601050090016E
:1046300005009A010500A4010500AE010500B801BE
:104640000500C2010500CC010500D6010500E0010E
:104650000500EA010500F4010500FE01050008025D
:104660000500120205001C020500260205003002AA
:1046700005003A020500440203004E0206005802FB
:104680000300620205006C0205007602020080024F
:1046900004008A020400940204009E020400A8029E
:1046A0000400B2020400BC020400C6020400D002EE
:1046B0000300DA020300E4020400EE020300F80241
:1046C0000500020304000C03040016030400200389
:1046D00004002A030400340304003E0304004803DA
:1046E0000400520304005C03050066030400700329
:1046F00004007A030400840304008E03010098037D
:104700000400A2030500AC03AEA100A200A4A83FD0
:10471000AD8EB00BB131B3F08A648B788C64BB3A48
:10472000BE3E81918250837D0000000000000000A9
:10473000B10B0100E51401000D0601001106010096
:1047400000000000000000001D12010039110100EE
:104750000D0601005D11010079110100E112010057
:104760005F110100000000000B00000002000000CB
:1047700004000000FF00FFFFFFFF0B00000000002F
:104780000A0000000200000004000000FF00FFFF1C
:10479000FFFF0A00000000000E00000008000000FB
:1047A00004000000FF00FFFFFFFF0E0000000000FC
:1047B00009000000040000001C000000FF000100D0
:1047C00001000900000000000800000004000000D3
:1047D0001C000000FF0000000000100000000000AE
:1047E0000F000000040000001C000000FF00010397
:1047F00001030F000000000014000000050000008D
:104800001C000000FF000200020004000000000085
:10481000150000000800000004000000FF00FFFF7A
:10482000FFFF05000000000006000000040000007B
:104830001C000000FF000001000106000000000055
:1048400007000000040000001C000000FF00010140
:104850000101070000000000120000000400000039
:104860001C000000FF000003000302000000000025
:1048700010000000020000001C000000FF00000209
:104880000002000000000000130000000200000011
:104890001C000000FF0003000300030000000000F4
:1048A00011000000020000000C000000FF000102E7
:1048B000FFFF0100000000000200000001000000F6
:1048C000020000000000FFFFFFFF020001000000E7
:1048D0000800000001000000020000000200FFFFCD
:1048E000FFFF0800010000000900000001000000B7
:1048F000020000000300FFFFFFFF090000000000AE
:104900000400000001000000020000000400FFFF9E
:10491000FFFF04000000000005000000010000008F
:10492000020000000500FFFFFFFF0500010000007E
:104930000200000001000000020000000A00FFFF6A
:10494000FFFF02000000000016000000020000004F
:1049500004000000FF00FFFFFFFF06000000000052
:10496000170000000200000004000000FF00FFFF2D
:10497000FFFF0700000000000C0000000200000024
:1049800004000000FF00FFFFFFFF0C00010000001B
:104990000A0000000300000004000000FF00FFFF09
:1049A000FFFF0A00010000000B00000003000000F0
:1049B00004000000FF00FFFFFFFF0B0001000000EC
:1049C0000300000008000000040000000B00FFFFCF
:1049D000FFFF0300000000001B00000008000000B3
:1049E00004000000FF00FFFFFFFF0F0000000000B9
:1049F0001C0000000600000000000000FF00FFFF98
:104A0000FFFFFF000000000018000000060000008B
:104A100000000000FF00FFFFFFFFFF00000000009C
:104A2000190000000600000000000000FF00FFFF6A
:104A3000FFFFFF000100000016000000030000005F
:104A400000000000FF00FFFFFFFF06000100000064
:104A5000170000000300000000000000FF00FFFF3F
:104A6000FFFF070000000000160000000200000029
:104A700000000000FF00FFFFFFFFFF00000000003C
:104A8000170000000200000000000000FF00FFFF10
:104A9000FFFFFF0000000000130000000200000004
:104AA00000000000FF00FFFFFFFFFF00000000000C
:104AB000100000000200000000000000FF00FFFFE7
:104AC000FFFFFF00000000001200000002000000D5
:104AD00000000000FF00FFFFFFFFFF0000000000DC
:104AE000110000000200000000000000FF00FFFFB6
:104AF000FFFFFF00000000000D00000002000000AA
:104B00000C000000FF000100FFFF0D00000000008E
:104B100015000000050000000C000000FF0003006D
:104B2000FFFFFF000000000006000000040000007E
:104B30000C000000FF000001FFFFFF00000000006C
:104B400007000000040000000C000000FF0001014D
:104B5000FFFFFF0000000000030000000100000054
:104B6000020000000100FFFFFFFFFF000000000047
:104B70000200000001000000020000001400FFFF1E
:104B8000FFFF0200000000001E00000008000000FF
:104B900004000000FF00FFFFFFFFFF000000000017
:104BA0001F0000000800000004000000FF00FFFFDD
:104BB000FFFFFF000000000000000000451D010095
:104BC000E51401006B1C0100271C0100411C0100C1
:104BD000F91D0100091A0100F91901008D1A0100DF
:104BE000231A0100F31901001A001A001B001B0010
:104BF0001C001C001D001D00000000000000000043
:104C000089290100452C01002D2C01000B2C0100ED
:104C1000ED270100EF270100DD28010054696E79BE
:104C200041726361646500000403090454696E798C
:104C300043697263756974730012010002EF020127
:104C400040EB0309800001010203010000000000A5
:104C5000000000001F380100553A01001B38010018
:104C6000393A0100193A0100913A0100753A010000
:104C7000473A0100353801009D37010061390100D4
:104C8000C537010019380100F0FFFFFF00000000E8
:104C9000093A010051390100B73A0100B53A010063
:104CA00009380100000000000000000000000000C2
:104CB00000000000000000000000000000000000F4
:104CC00000000000000000000000000000000000E4
:104CD00000000000000000000000000000000000D4
:104CE00000000000000000000000000000000000C4
:104CF00000000000000000000000000000000000B4
:084D00000000000000000000AB
:104D08003E0000003000000008000000080000001D
:104D180000000000790000200000000000000000F2
:104D280000000000001F1F1F1F1F1F00001F001F83
:104D38001F001F00001F1F1F1F1F1F00001F001F35
:104D48001F001F00001F1F00001F1F00001F1F1F44
:104D58001F1F1F00000000000000000046000000A8
:104D680030000000080000000800000000000000FB
:104D7800F400002001000000010000000000000015
:104D880000006D6D6D6D6D6D00006D6D6D6D6D6DFF
:104D980000006D6D6D6D6D6D00006D6D6D6D6D6DEF
:104DA80000006D6D6D6D6D6D00006D6D6D6D6D6DDF
:104DB80000000000000000000000000028000000C3
:104DC80011000000080000000800000000000000BA
:104DD8001C0000200100000000000000FBFFFFFF96
:104DE80002000000000000000000000012000000A7
:104DF800300000000000000000000000000000007B
:104E0800000000000000006D6D0000000000006D53
:104E18006D00000000006D6D6D6D000000006D6D8F
:104E28006D6D0000006D6D6D6D6D6D000000000012
:104E380000000000010000000020004200240042A1
:104E480000280042002C004200300042003400429A
:104E580040420F000A0000000A000000080000009D
:104E6800FFFFFFFFFFFFFFFF00C201000000080077
:104E7800FFFFFFFF7801002000000000C44C010084
:104E8800E44C0100A44C01000000000000000000F8
:104E9800000000000000000000000000000000000A
:104EA80000000000000000000000000000000000FA
:104EB80000000000000000000000000000000000EA
:104EC80000000000000000000000000000000000DA
:104ED8000000000000000000DD0001007D05010069
:104EE800D110010019140100511401007D3701008F
:104EF800413B0100B5000100000000000000000077
:0400000310001E5D6E
:00000001FF
